:020000040800F2
:1000000078E40024D903000891940008A96F00083F
:1000100089940008590B0008A9C1000800000000DD
:10002000000000000000000000000000B19900087E
:10003000B10D00080000000001960008E9990008D1
:10004000F3030008F3030008F3030008F3030008B8
:10005000F3030008F3030008F3030008F3030008A8
:10006000F3030008F3030008F3030008010C000881
:10007000110C0008F3030008F3030008F303000861
:10008000F3030008F3030008F3030008F303000878
:10009000F3030008F3030008F3030008F303000868
:1000A000F3030008919B0008F3030008F303000822
:1000B000F3030008F3030008F3030008F303000848
:1000C000F3030008F3030008F3030008F303000838
:1000D000B9980008F3030008F3030008F3030008CD
:1000E000B90D0008F303000800000000F303000846
:1000F000F3030008F3030008F3030008F303000808
:10010000F3030008F3030008F3030008F3030008F7
:10011000F3030008F3030008F3030008F3030008E7
:10012000F3030008F3030008F3030008F3030008D7
:10013000F3030008F3030008F3030008F3030008C7
:1001400000000000000000000000000000000000AF
:10015000F3030008F3030008F3030008F3030008A7
:10016000F3030008F3030008F3030008F303000897
:10017000F303000899940008F3030008000000004E
:10018000F3030008F3030008F3030008F303000877
:10019000F3030008F3030008F3030008F303000867
:1001A000F3030008F3030008F30300080000000055
:1001B000F3030008F3030008F3030008F303000847
:1001C000F3030008F3030008000000000000000033
:1001D0000000000000000000F30300080000000021
:1001E000000000000000000000000000000000000F
:1001F0000000000000000000F3030008F303000803
:10020000F3030008F303000800000000F3030008F4
:10021000F3030008F3030008F3030008F3030008E6
:10022000F303000800000000F303000800000000D2
:10023000F3030008F303000800000000F3030008C4
:10024000F3030008F3030008F3030008F3030008B6
:10025000F3030008F3030008F3030008F3030008A6
:10026000F3030008F3030008F3030008F303000896
:10027000F3030008F3030008F30300080000000084
:10028000F3030008F3030008F3030008F303000876
:1002900000000000F3030008F30300080000000062
:1002A00000000000F3030008F3030008F303000854
:1002B000F3030008F3030008F3030008F303000846
:1002C000F3030008F3030008F303000800F002F84A
:1002D00000F072F814A696E8000CB244B344DA4574
:1002E00001D100F069F8BAE80F000FA696E83000D7
:1002F000A5EB040504EB0607AAEB0704A7F1010729
:100300004FEA15154FEA3414A4F10104AC4201D3AD
:1003100000F052F813F0010F18BFFB1A43F001036D
:1003200000F001F8DBE718479C0F0100BC0F01004B
:100330000A444FF0000C10F8013B13F0070408BF0B
:1003400010F8014B1D1108BF10F8015B641E05D0A9
:1003500010F8016B641E01F8016BF9D113F0080F5E
:100360001EBF10F8014BAD1C0C1B09D16D1E58BFF0
:1003700001F801CBFAD505E014F8016B01F8016B27
:100380006D1EF9D59142D6D370470000704700002A
:100390000023002400250026103A28BF78C1FBD88E
:1003A000520728BF30C148BF0B6070471FB510F01F
:1003B000C4FA1FBD10B510BD00F00CF91146FFF7CF
:1003C000F5FF0DF0F1FA00F02AF903B4FFF7F2FFA0
:1003D00003BC00F02FF90000094880470948004796
:1003E000FEE7FEE7FEE7FEE7FEE7FEE7FEE7FEE7E5
:1003F000FEE7FEE704480549054A064B7047000042
:10040000E19A0008CD02000878B4002478E40024C2
:1004100078C4002478C40024032A40F2308010F00D
:10042000030C00F0158011F8013BBCF1020F62448F
:1004300098BF11F801CB00F8013B38BF11F8013B20
:10044000A2F1040298BF00F801CB38BF00F8013BCD
:1004500011F0030300F02580083AC0F0088051F83D
:10046000043B083A51F804CBA0E80810F5E7121D48
:100470005CBF51F8043B40F8043BAFF30080D20767
:1004800024BF11F8013B11F801CB48BF11F8012B33
:1004900024BF00F8013B00F801CB48BF00F8012B56
:1004A000704710B5203AC0F00B80B1E81850A0E8B2
:1004B0001850B1E81850A0E81850203ABFF4F5AF32
:1004C0005FEA027C24BFB1E81850A0E8185044BF8E
:1004D00018C918C0BDE810405FEA827C24BF51F8FB
:1004E000043B40F8043B08BF7047D20728BF31F8EF
:1004F000023B48BF11F8012B28BF20F8023B48BF40
:1005000000F8012B704702F0FF0343EA032242EA9E
:10051000024200F024B84FF000020429C0F012801B
:1005200010F0030C00F01B80CCF1040CBCF1020FA6
:1005300018BF00F8012BA8BF20F8022BA1EB0C017B
:1005400000F00DB85FEAC17C24BF00F8012B00F871
:10055000012B48BF00F8012B70474FF0000200B597
:10056000134694469646203922BFA0E80C50A0E8D6
:100570000C50B1F12001BFF4F7AF090728BFA0E884
:100580000C5048BF0CC05DF804EB890028BF40F850
:10059000042B08BF704748BF20F8022B11F0804F92
:1005A00018BF00F8012B704770477047704710B5AF
:1005B00000F008F8006810BD10B5044600F002F81D
:1005C000046010BD00487047B00100240048704727
:1005D000B00100247546FFF7F9FFAE4605006946F5
:1005E000534620F00700854618B020B5FFF702FFFC
:1005F000BDE820404FF000064FF000074FF0000824
:100600004FF0000BAC46ACE8C009ACE8C009ACE860
:10061000C009ACE8C00921F007018D46704710B54C
:100620000446AFF300802046BDE81040FFF7CDBE82
:100630007047000001491820ABBEFEE7260002000B
:1006400010B50446006842F2001140F48070C4F214
:100650000201884218D142F20830C4F20200006858
:1006600010F4403F18D004F0B7FE6168B1F5803F48
:1006700005D0B1F5403F2DD0B1F5003F2BD1090C8D
:10068000B0FBF1F027E000BF46F20830C5F60200EB
:10069000006810F4403FE6D14FF40020002103F041
:1006A00027FE6168A1F580228B0343EA92420A2A61
:1006B00011D8DFE802F00707070707073D3F41436E
:1006C000450000BF6FF0010202EA5141B0FBF1F0BA
:1006D00001E000BF80084BF62141C0F2BE01884214
:1006E00006D82068816821F44071816010BD00BF88
:1006F00047F64101C0F27D11884207D820680122E7
:10070000816862F30921816010BD00BF21684FF24A
:100710008102C0F2FA229042886805D8022262F370
:100720000920886010BD00BF40F44070886010BD93
:100730000009D0E74009CEE78009CCE7C009CAE745
:10074000000AC8E700000000B0B5016804468A68E6
:100750008868C0074FF0000031D012F0020218BFC5
:10076000B0BD886800F00D0001281FD14FF6C0729F
:100770008868C7F6FF721040023088600320086066
:1007800002F02EFA21688968C90701D10020B0BDA6
:10079000054602E08068C007F8D002F021FA401B4D
:1007A00003282068F6D38168C907F3D0206E40F093
:1007B00010002066606E40F0010060660120B0BD50
:1007C000F0B581B0044600688168C9074CD14FF686
:1007D000C0778168C7F6FF7707F17F0211420BD01F
:1007E000206E40F010002066606E40F001006066F0
:1007F000012001B0F0BD00BF8168394041F0010126
:10080000816002F0EDF942F2000346F20836C4F2CC
:100810000203216803F5807203F54275C5F60206EE
:10082000914208BF2E46994208BF2E46994205467E
:10083000306816D0914214D110F01F0014D110E08E
:100840008868C00704D18868384040F0010088609B
:1008500002F0C6F9401B2168032802D30868C007CC
:10086000BED00868C007EBD0002001B0F0BD00008A
:1008700040F600000121C5F60200012202F0A8B9ED
:1008800040F600000121C5F60200002202F0A0B9E6
:10089000704700000000000040F600000821C5F687
:1008A0000200012202F094B940F600000821C5F6CA
:1008B0000200002202F08CB9704700000000000026
:1008C000002808BF704710B54EF2180145F2003CF1
:1008D000CEF20001C0F2070C03E000BF01380204B1
:1008E0001AD051F804EC0B68002208E01A449C422C
:1008F000A2EB0402234628BF72446245EED20C6884
:100900009C42F3D10C689C4204BF0C689C42EDD120
:100910000C689C42F3D0E9E7BDE810407047000046
:1009200080B54EF21801C0EB0010CEF200014FEA84
:10093000401E002351F804CC0A6808E0134490429A
:10094000A3EB0003024628BF634473450CD208683A
:100950009042F3D10868904204BF08689042EDD1FC
:1009600008689042F3D0E9E780BD00000000000075
:1009700010B5FFF78DFFFFF79FFF0CF0E1FD044678
:100980000CF006FF204310BD2DE9F04F83B002921A
:100990000E460190FFF774FF922000F0C5F89220F8
:1009A00000F0C2F8552000F0BFF88046552000F056
:1009B000BBF88346552000F0B7F88246552000F07A
:1009C000B3F80446552000F0AFF80746552000F074
:1009D000ABF80546FFF74CFF48EA0B2040F2100940
:1009E00000B2C2F2004900EE100A4AEA042000B246
:1009F00099ED001AB8EEC00A21EE000A01EE100AC5
:100A000047EA052086ED000A00B299ED002A00EEC3
:100A1000100AB8EEC11AB8EEC00A22EE011A86ED2D
:100A2000011A22EE000A86ED020AFFF73DFF802040
:100A300000F07AF8552000F077F80646552000F0CF
:100A400073F8552000F070F88246552000F06CF8DD
:100A50000546552000F068F88346552000F064F8FC
:100A60000446552000F060F80746552000F05CF879
:100A70008046FFF711FF0F2E25D14AEA052099ED98
:100A8000011A00B2019900EE100A4BEA042000B2EC
:100A9000B8EEC00A21EE000A01EE100A47EA08206B
:100AA00081ED000A00B299ED012A00EE100AB8EEBD
:100AB000C11AB8EEC00A22EE011A81ED011A22EE27
:100AC000000A81ED020AFFF7DBFEA22000F02CF8FD
:100AD000A22000F029F8552000F026F80446552001
:100AE00000F022F80546FFF7C3FEE0004FF60003D2
:100AF00040EA55110022CFF6FF73B2EB902F18BFDA
:100B00001943B4EE001AB3EE072A00EE101A029849
:100B1000B8EEC00AA0EE012A80ED002A03B0BDE8BD
:100B2000F08F00000000000080B582B08DF8070053
:100B300046F2BC60C2F200400DF107010DF1060261
:100B400001234FF47A7CCDF800C005F0A9FA9DF896
:100B5000060002B080BD0000FEE7000000000000BB
:100B600000207047000000000020704700000000D7
:100B700010B545F6745445F21431C2F20044C2F285
:100B800000410022204609F097FA44F6143120462D
:100B9000C2F2004109F080FA002010BD0000000000
:100BA00010B545F674540146C2F20044204609F0DF
:100BB00073FA204609F04CFA002010BD0000000036
:100BC000002070470000000045F67452C2F2004257
:100BD000D2F8BC22D2F81422002A1CBF0120704790
:100BE00010B545F674540A46C2F200440146204648
:100BF00009F062FA2046BDE8104009F0E5BA0000AD
:100C000046F2C000C2F2004000F0B2BF0000000097
:100C100046F23810C2F2004000F0AABF0000000007
:100C200040F20F42D0F800C0C4F20202944511DC39
:100C30006F22C4F20202944522DC3F22C4F2020277
:100C4000944539DC1022C4F2020294455AD028227D
:100C500054E000BF40F26F42C4F2020294451BDC34
:100C600040F23F42C4F2020294452DDC40F21042B1
:100C7000C4F20202944545D040F228423EE000BF53
:100C80009F22C4F20202944528DC7022C4F20202C0
:100C9000944537D0882231E040F29F42C4F20202EC
:100CA000944523DC40F27042C4F20202944529D0FC
:100CB00040F2884222E000BF4022C4F20202944582
:100CC00020D058221AE000BF40F24042C4F2020293
:100CD000944517D040F2584210E000BFA022C4F261
:100CE000020294450ED0B82208E000BF40F2B8429C
:100CF000C4F20202944505D040F2A042C4F20202BE
:100D0000944517D10CF0F8024AF6AB23103ACAF614
:100D1000AA23A2FB03310AA35F2AC1F302115B5C81
:100D200040F2FF312CEA0101C36588BF04318165BF
:100D3000084670472CF0FF0181650846704700BFE8
:100D4000000610160006101680B54EF6FC514FF046
:100D5000000CCEF200010A6842F080720A6041F293
:100D6000000144F24022CEF20001C0F20F025043D3
:100D700044F6D352C1F804C0C1F262020B68A0FB72
:100D8000022E4DF6836243F001030B6040F23031D6
:100D9000C4F21B32C2F20041A0FB022308604FEAFA
:100DA0009E104860980CC1E9020C80BD0000000054
:100DB000704700000000000080B54FF4806001F033
:100DC00027FE4FF48050BDE8804001F021BE0000B6
:100DD000EFF3108072B600BFFEE7000000000000D5
:100DE00044F2C840C2F2004090ED690A704700002A
:100DF00044F2C840C2F2004090ED680A704700001B
:100E000044F2C840C2F2004090ED6A0A7047000008
:100E100070B582B000230193044690F85C0001286D
:100E200002D1022002B070BD012084F85C0020468F
:100E300015460E46FFF788FC216E18B141F01001EF
:100E40004CE000BF41F202124FF6C0739143C3F66B
:100E5000FE7302312166216806F4803605F0804574
:100E60008A682E4413404FF2FF72C2F2C3523344D9
:100E700003F100438B608B68B3F1FF3F2ADC019BD9
:100E800001330193019B93421DD88B68B3F1FF3F5F
:100E900020DC019B01330193019B934213D88B68A3
:100EA000B3F1FF3F16DC019B01330193019B934299
:100EB00009D88B68B3F1FF3F0CDC019B0133019330
:100EC000019B9342D7D9206E40F0100020F0020120
:100ED000012003E0216E012262F30101216600215D
:100EE00084F85C1002B070BD2DE9F04381B000229F
:100EF000009290F85C20012A04D10221084601B03A
:100F0000BDE8F0830368012280F85C209A685207EC
:100F100000F1288246F2083C4FF6FF7EC5F6020C2F
:100F2000C0F20F0EACF542780C68434512D094FA2B
:100F3000A4F514EA0E0FB5FA85F54FF0010608BFC7
:100F4000A50EA40E05F01F0506FA05F5DE6935436A
:100F5000DD6100E0A40E4D681F2204F01F04C5F3FC
:100F6000012605F01F05AA4003EB8606AC40376B4F
:100F700027EA0202224332639A689C6802F0040264
:100F800004F00804121940F004810A6807268D68ED
:100F90004345C2F34064C2F3045203EB840406FAEF
:100FA00002F6676905FA02F227EA060642EA060235
:100FB000626117D041F20002C5F60042126802F0E9
:100FC0007042B2F1805F73D14A69DC680E2505EA90
:100FD000540402FA04F90D694F46042D00F0828092
:100FE000A8E000BF4FF60452CFF6FF72D1E90454D7
:100FF000042D5CF8026065D14FF65852CFF6FF72AF
:101000005CF802201A6E0E68C2F3846216EA0E04BF
:10101000C6F3846596FAA6F6B6FA86F6374608BF92
:101020002F46BA420CD11A6E22F000421A660A68A4
:1010300002EA0E04C2F3846592FAA2F2B2FA82F6D0
:101040005A6E37465A6E002C08BF2F46C2F3846290
:10105000BA420CD15A6E22F000425A660A6802EA7D
:101060000E04C2F3846592FAA2F2B2FA82F69A6E84
:1010700037469A6E002C08BF2F46C2F38462BA42EC
:101080000CD19A6E22F000429A660A6802EA0E04B7
:10109000C2F3846592FAA2F2B2FA82F6DA6E002CFA
:1010A000DA6E08BF2E46C2F38462B2423AD070E0D4
:1010B000DA684C69DD68D2064FEA55050AD405F0B6
:1010C0000E0209E006224FF0004902EA960204FAF5
:1010D00002F72FE005F0080204FA02F90D694F4605
:1010E000042D27D11A6E0C6802F0F842A406A24221
:1010F00040F09A801A6E22F000421A665A6E02F090
:10110000F842A24200F096809A6E02F0F842A242A3
:1011100003D19A6E22F000429A66DA6E02F0F8422B
:10112000A24236D1DA6E22F00042DA669A68D2071D
:1011300033D0D0E003F160060A68434502F0F8427C
:1011400056F8254042EA090218BF04F0004743451B
:1011500042EA070246F825200C6977D091F8212051
:101160000D7E56F8247027F00047012A08BF07F1CA
:1011700000476A1EB2FA82F246F8247052090C69DE
:10118000D2021D6904F01F0425F4F045A2402A4351
:101190001A619A68D20740F09E8043450C68CD687A
:1011A00026D005F01806D3F8C02004EA0E072EFA60
:1011B00006F6BA4326403243C3F8C0200022C4F2E8
:1011C000FF7295422CD114EA0E0F5BD094FAA4F270
:1011D000B2FA82F2013202F01E07092F02F01F0755
:1011E00059D8012207EB4706BA4042EA06575EE0AB
:1011F0004FF6A85905F01807CFF6FF7904EA0E025A
:101200002EFA07F75CF8096026EA020207EA0406EC
:1012100032434CF809200022C4F2FF729542D2D02A
:10122000B4F1FF3F57DC59E05A6E02F0F842A24297
:101230007FF46AAF5A6E22F000425A669A6E02F04C
:10124000F842A2423FF465AF67E700BFACF52A72EF
:10125000CD6952F8246026F08076354342F8245058
:101260000C6991F8205052F82460012D26F0007688
:1012700008BF06F1007642F824609A68D2078CD045
:1012800029E000BF012202EB946202F01E070A2F40
:1012900002F01F07A5D3012207EB4706BA4000273B
:1012A000CFF6206707EB06573A4342F00077C7F3C3
:1012B00040620725C7F304578E6803EB8202BD40E6
:1012C000546906FA07F724EA05052F4357610C68AD
:1012D000B4F1FF3F02DD002149E000BF42F200010E
:1012E00042F20016C4F20201C4F2020601F5807255
:1012F00001F542779342624608BF3A468B4208BFE7
:101300003A4643F48077B742166823D18A68D1F809
:1013100008111143C90725D1002106F0E075CCF270
:1013200052718C4208BF16F4000127D00021CCF284
:1013300021318C4260D10021B1EB156F5CD1434566
:1013400015D1DCF8001021F0E071294341F08071E3
:1013500065E000BF4FF60051CFF6FF715CF8011059
:10136000C907D9D0016E41F0200101660121002298
:1013700080F85C20084601B0BDE8F0834345AAD15F
:10138000DCF8001042F6635221F0E071C0F23E52E8
:10139000294341F40001CCF8001040F20801C2F2E8
:1013A000004109688909A1FB02129109022202EB9E
:1013B00041010091009900298DD0009901390091D7
:1013C000009900293FF487AF0099013900910099F5
:1013D00000293FF480AF009901390091009900295C
:1013E0003FF479AF009901390091009900294FF03D
:1013F0000001E2D1BBE700BF43454FF00001B6D189
:101400000022CCF68432944208BF16F48002AED19A
:10141000DCF8001021F0E071294341F48001CCF8A0
:1014200000100021A3E700000068006C7047000076
:10143000F0B581B0044600284FF0000000902DD098
:10144000206E30B9204600F07BF90020606684F8F9
:101450005C002068816889004FF6C071C5F6FF7195
:1014600002D582680A4082608268D20031D48268E4
:1014700001F18051114042F6635241F08051816088
:1014800040F20801C0F23E52C2F2004109688909E7
:10149000A1FB0212012101EB921105E00125284672
:1014A00001B0F0BD009901390091009989B100990E
:1014B00001390091009961B10099013900910099B9
:1014C00000291FBF009901390091009918BF002918
:1014D000E8D18168C90009D4216E012541F01001CD
:1014E0002166616E41F00101616600E000258168BE
:1014F000226E02F0100201F004018918216E59D108
:1015000021F4817146F2100C023121668168C5F622
:10151000020CC90724D142F2001240F48071C4F2D7
:101520000202914242F20001C4F2020140F0F08056
:101530008A68D1F808311A43D20711D101F58072B7
:1015400001F5427390421A4618BF0CF53E7288426C
:1015500008BF1A466168136823F47C1319431160AD
:10156000617EE36BACF11006B04243EA413329D00F
:10157000A168194394F82030012B41EA034306D1B6
:10158000616A0022CFF6FE7202EB41410B43A16A71
:1015900021B101F47871E26A11430B43B0421FD0CC
:1015A0004CF20302C168CFF6F07211401943C160DA
:1015B00028E000BF41F0100001252066284601B058
:1015C000F0BD00BFD4E9021E082900F0A7800C2955
:1015D00000F0A6801C2940F0A5801021A5E000BFE6
:1015E00044F207025CF8041CCFF6F0721140194374
:1015F0004CF8041CDCF80010626B21F040611143D0
:10160000CCF800108168826801F0040102F0080241
:10161000891869D1217EB0424FEA813126D0226BF0
:10162000C36844F20307BB431A431143C16094F8F3
:101630004410012948D14FF61E020169CFF600423D
:101640000126D4E912371140CFF6FF7606EB0343AB
:101650003943276D1943636D3943226C1943016186
:10166000016921F07041114301613AE05CF8042CFA
:1016700094F8383044F2030E94F8447022EA0E02D3
:1016800042EA4302012F41EA02014CF8041C1BD13B
:101690004FF61E01DCF80000CFF600410840D4E907
:1016A00012120843216D1043626D0843216C1043F0
:1016B00040F00100CCF80000DCF8000020F07040A1
:1016C0000843CCF800000FE00169B04221F00101AD
:1016D00001610169226C21F0704141EA020101615E
:1016E00002D02046FEF7ACFF20682169026B012979
:1016F00022F00F0102D1E269013A11430163012195
:10170000206E61F301002066284601B0F0BD00BFE5
:101710005CF8082CD2073FF411AF21E7002104E068
:10172000082102E0182918BF002141EA0E011943DF
:1017300094F82030012B41EA03433FF421AF26E720
:10174000B0B5B0B0044602A844F2E045283090217C
:10175000C5F60205FEF701FF206805F5D95188425C
:1017600002D030B0B0BD00BF002003904FF4002184
:1017700002910221049110220B90CDE90521CDE9BF
:101780000711C021CDE9091002A802F071FF08B1CC
:10179000FFF71EFB286840F080702860286800F082
:1017A00080700190019830B0B0BD000000000000D2
:1017B000F0B581B042F2000546F20832C4F20205EB
:1017C0000446006805F5807605F54271C5F602020B
:1017D000B04208BF0A46A84208BF0A461768806898
:1017E000400703D494F85C00012803D1022001B023
:1017F000F0BD00BF012084F85C002046FEF7E0FF4A
:1018000030B1002084F85C00012001B0F0BD00BFC1
:10181000206807F01F01B04240F6017318BF05466B
:10182000226E2F1A22EA0303B7FA87F703F58073B3
:101830007A09236600D119B9236E23F48013236635
:10184000236E0027DB044FF0000344BF676E27F0D0
:10185000060767664FF01C07076084F85C3042B9E2
:10186000092919D8012202FA01F140F2212211427C
:1018700012D0C168890104D5216E012262F30D31B5
:1018800021664FF6C0728168C7F6FF7211400431BD
:101890008160002001B0F0BD206E40F48010206611
:1018A000E8688001F5D5206E012161F30D302066D6
:1018B000002001B0F0BD0000F0B190F83510022911
:1018C00018D180B540F20F420168C4F20202914281
:1018D00014DC6F23C4F20203994225DC3F23C4F2D7
:1018E000020399423CDC1023C4F2020399425DD00A
:1018F000282357E0802141650120704740F26F4363
:10190000C4F2020399421BDC40F23F43C4F20203DB
:1019100099422DDC40F21043C4F20203994245D0B3
:1019200040F228433EE000BF9F23C4F202039942E5
:1019300028DC7023C4F20203994237D0882331E0B7
:1019400040F29F43C4F20203994223DC40F2704309
:10195000C4F20203994229D040F2884322E000BF3A
:101960004023C4F20203994220D058231AE000BF5A
:1019700040F24043C4F20203994217D040F2584368
:1019800010E000BFA023C4F2020399420ED0B82396
:1019900008E000BF40F2B843C4F20203994205D008
:1019A00040F2A043C4F20203994277D191424FF032
:1019B000040280F8352011DC6F20C4F2020081425D
:1019C00022DC3F20C4F20200814239DC1020C4F244
:1019D0000200814259D0282054E000BF40F26F40FD
:1019E000C4F2020081421BDC40F23F40C4F202001C
:1019F00081422DDC40F21040C4F20200814244D00A
:101A000040F228403EE000BF9F20C4F20200814225
:101A100028DC7020C4F20200814236D0882031E0F8
:101A200040F29F40C4F20200814223DC40F2704049
:101A3000C4F20200814228D040F2884022E000BF78
:101A40004020C4F2020081421FD058201AE000BF9B
:101A500040F24040C4F20200814216D040F25840A9
:101A600010E000BFA020C4F2020081420DD0B820D7
:101A700008E000BF40F2B840C4F20200814204D046
:101A800040F2A040C4F202008142086820F0010048
:101A900008600021BDE88040084670470A6822F0CF
:101AA0000E020A6045F25742C5F6020291420A68E8
:101AB00022F001020A600FDC45F22F42C5F6020255
:101AC000914219DC45F20842C5F60202914229D042
:101AD00045F21C4222E000BF45F27F42C5F60202F9
:101AE000914213DC45F25842C5F60202914219D0E8
:101AF00045F26C4212E000BF45F23042C5F60202E8
:101B000091420FD045F2444208E000BF45F29442B2
:101B1000C5F60202914205D045F28042C5F60202A6
:101B200091421AD1D0E9181CD0E916E30A6822F4D0
:101B300080720A6003F01F01012202FA01F1CEF85F
:101B40000410816ECCF80410C16E31B10A6822F421
:101B500080720A60D0E91C124A60012180F83510B9
:101B6000026D0021002A80F8341093D0904790E74E
:101B70002DE9F04782B00021019140F208010446AE
:101B8000C2F2004148F2B512C1F64E32A56D0968A5
:101B900040F26F490068C4F20209A1FB02184845EF
:101BA0002E68296816DC9F21C4F2020188422DDCD0
:101BB0005721C4F20201884252DC1021C4F2020112
:101BC00088427CD02821C4F20201884277D040218B
:101BD00070E000BF45F22F42C5F60202904229DCB8
:101BE00040F2B742C4F20202904245DC40F270413A
:101BF000C4F20201884262D040F28841C4F202017C
:101C000088425CD040F2A04154E000BF40F227413E
:101C1000C4F2020188423FDCA021C4F202018842E2
:101C20004DD0B821C4F20201884248D040F21041A0
:101C300040E000BF45F26B42C5F60202904275DCFF
:101C400045F23042C5F60202904200F0828045F231
:101C50004442C5F6020290427BD045F2584273E0FE
:101C60005821C4F20201884229D07021C4F2020135
:101C7000884224D088211DE040F2B842C4F202021A
:101C800090421CD045F20842C5F60202904260D054
:101C900045F21C4258E000BF40F22841C4F2020164
:101CA00088420CD040F24041C4F20201884206D082
:101CB00040F25841C4F20201884240F05183E16D84
:101CC000082201F01F0140F20F4A8A40C4F2020AC2
:101CD000324200F0DE8050454FF0040312DC6F27E3
:101CE000C4F20207B8426DDC3F27C4F20207B842D3
:101CF00000F39C801027C4F20207B84200F0BD80B8
:101D00002827B5E0484569DC40F23F47C4F20207A6
:101D1000B84200F3938040F21047C4F20207B84281
:101D200000F0AB8040F22847A2E000BF45F26C42D1
:101D3000C5F6020290420CD045F28042C5F602027E
:101D4000904206D045F29442C5F60202904240F01D
:101D500007830268E36D03F01F0304279F400F42CF
:101D600018BF12F0040623D102279F400F4218BF6C
:101D700012F0020642D1D940090740F1F18212F077
:101D8000080100F0ED82016821F00E0101600120E0
:101D900000FA03F16960606584F83500E16C0029A0
:101DA0004FF0000084F8340040F0D582D8E200BF44
:101DB00011046F6034D4910636D4016821F0040117
:101DC000016031E09F27C4F20207B84240DC70276F
:101DD000C4F20207B84250D0882749E040F29F473A
:101DE000C4F20207B8423BDC40F27047C4F202077B
:101DF000B84242D040F288473AE000BF11046F6019
:101E000000F1B282910600F1B382016821F00A016B
:101E10000160012084F83500002084F83400A7E236
:101E2000D00301D4A16C95E2216C93E24027C4F267
:101E30000207B84221D058271AE000BF40F24047BD
:101E4000C4F20207B84218D040F2584710E000BF71
:101E5000A027C4F20207B8420FD0B82708E000BF9D
:101E600040F2A047C4F20207B84206D040F2B84799
:101E7000C4F20207B84218BF082307681F4208D0FF
:101E8000036823F004030360AA60626D42F001025C
:101E9000626501228A4032426FD0504510DC6F23C8
:101EA000C4F2020398421DDC3F23C4F202039842AD
:101EB00034DC1023C4F20203984256D028234FE0AA
:101EC00048451BDC40F23F43C4F2020398422DDC3C
:101ED00040F21043C4F20203984246D040F2284335
:101EE0003EE000BF9F23C4F20203984228DC702327
:101EF000C4F20203984238D0882331E040F29F4375
:101F0000C4F20203984223DC40F27043C4F202039D
:101F100098422AD040F2884322E000BF4023C4F216
:101F20000203984221D058231AE000BF40F24043F8
:101F3000C4F20203984218D040F2584310E000BFA8
:101F4000A023C4F2020398420FD0B82308E000BFD8
:101F500040F2A043C4F20203984206D040F2B843D4
:101F6000C4F20203984240F0058243691B0604D57F
:101F7000AA60626D42F00202626504228A40324227
:101F80006FD0504510DC6F23C4F2020398421DDC71
:101F90003F23C4F20203984234DC1023C4F202034C
:101FA000984256D028234FE048451BDC40F23F437F
:101FB000C4F2020398422DDC40F21043C4F2020343
:101FC000984246D040F228433EE000BF9F23C4F22F
:101FD0000203984228DC7023C4F20203984238D0EE
:101FE000882331E040F29F43C4F20203984223DC8D
:101FF00040F27043C4F2020398422AD040F2884370
:1020000022E000BF4023C4F20203984221D05823AB
:102010001AE000BF40F24043C4F20203984218D0D5
:1020200040F2584310E000BFA023C4F202039842DC
:102030000FD0B82308E000BF40F2A043C4F202036F
:10204000984206D040F2B843C4F20203984240F0EE
:10205000998103689B0704D5AA60626D42F004026F
:102060006265102202FA01F1314200F08180504590
:102070004FF0080210DC6F23C4F2020398421DDC0B
:102080003F23C4F20203984234DC1023C4F202035B
:10209000984256D028234FE048451BDC40F23F438E
:1020A000C4F2020398422DDC40F21043C4F2020352
:1020B000984246D040F228433EE000BF9F23C4F23E
:1020C0000203984228DC7023C4F20203984238D0FD
:1020D000882331E040F29F43C4F20203984223DC9C
:1020E00040F27043C4F2020398422AD040F288437F
:1020F00022E000BF4023C4F20203984221D05823BB
:102100001AE000BF40F24043C4F20203984218D0E4
:1021100040F2584310E000BFA023C4F202039842EB
:102120000FD0B82308E000BF40F2A043C4F202037E
:10213000984206D040F2B843C4F20203984218BF56
:1021400004220368134213D0A9600168490301689F
:1021500008D4C90508D4016821F008010160216C88
:1021600021B905E008034FD4216C09B12046884706
:10217000E06D00F01F01202000FA01F2324200F071
:10218000AD8020681023504510DC6F27C4F2020791
:10219000B8421DDC3F27C4F20207B84238DC1027E2
:1021A000C4F20207B8425AD0282753E048451BDC46
:1021B00040F23F47C4F20207B84231DC40F2104718
:1021C000C4F20207B8424AD040F2284742E000BFBA
:1021D0009F27C4F20207B8422CDC7027C4F2020722
:1021E000B8423CD0882735E040F29F47C4F202074E
:1021F000B84227DC40F27047C4F20207B8422ED042
:1022000040F2884726E000BFA16C0029AED1AFE7BD
:102210004027C4F20207B84221D058271AE000BF75
:1022200040F24047C4F20207B84218D040F2584783
:1022300010E000BFA027C4F20207B8420FD0B827B1
:1022400008E000BF40F2A047C4F20207B84206D03F
:1022500040F2B847C4F20207B84218BF0223076829
:102260001F423BD0AA6094F83520042A02681DD191
:1022700022F016020260426922F080024261226C62
:102280000AB9A26C1AB1026822F0080202603F206B
:102290008840A860012084F83500216D00294FF0A6
:1022A000000084F8340056D15AE000BF51030168A1
:1022B0000CD4C9050ED4016821F010010160012081
:1022C00084F83500002084F8340003E0080301D4CA
:1022D000616C00E0E16B09B120468847606D002821
:1022E0003ED0606DC00734D0042084F835002068EB
:1022F0004FEA9821026822F001020260019A01323D
:1023000001928A421AD80268D20717D0019A013284
:1023100001928A4212D80268D2070FD0019A013284
:1023200001928A420AD80268D20707D0019A013284
:1023300001928A4202D80268D207DFD10068C00742
:102340004FF0030008BF012084F83500002084F816
:102350003400E16C21B1204602B0BDE8F0470847E7
:1023600002B0BDE8F08700BFD00301D4616CF1E793
:10237000E16BEFE7026804228A4032427FF401AE4B
:102380006FE600BF02686CE62DE9F04381B00446B9
:1023900000F026FC002C00F0AF8040F26F480546AC
:1023A0002068C4F20208404516DC9F21C4F20201F5
:1023B00088422DDC5721C4F20201884254DC1021EE
:1023C000C4F20201884200F07E802821C4F202019A
:1023D000884278D0402171E045F22F41C5F60201D4
:1023E000884229DC40F2B741C4F20201884247DC4E
:1023F00040F27041C4F20201884264D040F2884148
:10240000C4F2020188425ED040F2A04156E000BF13
:1024100040F22741C4F20201884241DCA021C4F20B
:10242000020188424FD0B821C4F2020188424AD04A
:1024300040F2104142E000BF45F26B41C5F6020197
:10244000884200F3BB8045F23041C5F60201884264
:1024500000F0C78045F24441C5F60201884200F011
:10246000C08045F25841B7E05821C4F202018842C9
:1024700029D07021C4F20201884224D088211DE0B5
:1024800040F2B841C4F2020188421CD045F2084132
:10249000C5F60201884200F0A48045F21C419BE091
:1024A00040F22841C4F2020188420CD040F240417F
:1024B000C4F20201884206D040F25841C4F202013F
:1024C000884240F02381022184F83510002184F8ED
:1024D0003410016821F00101016000BF206801682B
:1024E000C9070DD000F07CFB401B0628F6D3202046
:1024F0006065032084F83500012001B0BDE8F08359
:1025000048F23F0204F108060168CFF6106211405C
:10251000D4F818C06CCE11431943E3692943256AE6
:102520000E43616A3343042943EA050343EA0C037B
:1025300003D1D4E90B652E433343666843F480121C
:10254000A6F13F07A6F12905042FA6F1470938BFD8
:102550001346062DA6F14F0E38BF1346B9F1020FF0
:1025600026F0030738BF1346BEF1040F38BF1346E9
:10257000742F08BF134604290360426922F0070242
:1025800041EA020140F0DE80D4E90A53002B41EA1F
:10259000050100F0D780BCF5005F00F0B980BCF108
:1025A000000F40F0C180022D00F0C180012D00F02D
:1025B000B580002D00F0BB80C4E000BF45F26C4147
:1025C000C5F6020188420CD045F28041C5F60201F1
:1025D000884206D045F29441C5F60201884240F097
:1025E000958004F1080E022184F83510002184F84A
:1025F00034100168A3699EE80450A2F18005E769E0
:10260000B5FA85F566696D09402A4FEA853543EAD2
:1026100007026FF3101142EA060208BF102541EAD3
:10262000DC0142EA0E02236A294341EAD20141EA6F
:10263000131140F80819C0B2CD2148433C2101EAEA
:102640009020E0652046FEF7EBFAE16D012201F0F3
:102650001F0102FA01F141602068404500F38180CA
:102660009F21C4F20201884214DC5721C4F2020106
:10267000884227DC1021C4F20201884200F0C780A2
:102680002821C4F20201884200F0C1804021C4F236
:102690000201B9E040F22741C4F20201884221DC84
:1026A000A021C4F20201884200F0B180B821C4F236
:1026B0000201884200F0AB8040F21041C4F20201F6
:1026C000A2E000BF5821C4F20201884200F09F80BE
:1026D0007021C4F20201884200F099808821C4F27E
:1026E000020191E040F22841C4F20201884200F068
:1026F0008E8040F24041C4F20201884200F087809F
:1027000040F25841C4F202017EE000BF4020EFE6F3
:10271000032D17D8DFE805F00E0B0E02A3F1C072EF
:10272000B2FA82F2520904E0032D03D30AD1C3F3B3
:1027300000623AB140206065012084F8350001B0A4
:10274000BDE8F08341612046FEF76AFAE16D3F2261
:1027500001F01F0102FA01F18160206840457FF716
:102760007FAF45F22F41C5F60201884216DC40F2E8
:10277000B741C4F20201884226DC40F27041C4F243
:102780000201884243D040F28841C4F202018842EB
:102790003DD040F2A041C4F2020135E045F26B4168
:1027A000C5F6020188421FDC45F23041C5F6020140
:1027B00088422CD045F24441C5F60201884226D019
:1027C00045F258411EE000BF40F2B841C4F2020198
:1027D00088421CD045F20841C5F60201884216D055
:1027E00045F21C410EE000BF45F26C41C5F6020106
:1027F00088420CD045F29441C5F60201884206D0C9
:1028000045F28041C5F60201884240F0E18045F280
:10281000574C45F6FC01C5F6020CC5F602016045B1
:102820000EDC45F22F42C5F60202904218DC45F25A
:102830000842C5F60202904228D045F21C4221E02F
:1028400045F27F42C5F60202904213DC45F258423F
:10285000C5F60202904219D045F26C4212E000BF68
:1028600045F23042C5F6020290420FD045F2444292
:1028700008E000BF45F29442C5F60202904205D03E
:1028800045F28042C5F60202904247D100F0FC02B8
:102890004CF6CD43083ACCF6CC43A2FB0323A1F17E
:1028A000FC05A1F17C061B0905EB830503F01F0263
:1028B000A3682566802B4FF0010303FA02F26666D7
:1028C000A26605D100206060286072601EE000BF33
:1028D0006768FBB2013F072F2B60726016D85E1E3F
:1028E000082E19D2604501F1440237DC45F22F472A
:1028F000C5F60207B84241DC45F20847C5F60207B3
:10290000B84259D045F21C474AE000BF002060673A
:10291000C4E91B005CE000BFE06E54E000F0F80288
:102920004AF6AB23103ACAF6AA23A2FB032740F2C9
:102930000F43C4F2020308253A09984203F1AA069C
:10294000134688BF05EB171340F60005B042C4F2EA
:10295000020505F1800628BF1346A5E745F27F472B
:10296000C5F60207B84213DC45F25847C5F6020720
:10297000B84221D045F26C4712E000BF45F2304723
:10298000C5F60207B84217D045F2444708E000BF39
:1029900045F28047C5F60207B8420DD045F294478C
:1029A000C5F60207B84207D040F60000C4F20200A4
:1029B00000F1FC0100F5A07201EB83000121E0664B
:1029C000B1402267616700210160D4E91C014160C8
:1029D00000206065012184F8351001B0BDE8F08366
:1029E000B0B5044600F0FCF840F200010546C2F222
:1029F0000041621C097818BF0C4400BF00F0F0F8D9
:102A0000401BA042FAD3B0BD704700000000000098
:102A10008821C5F600010A68024208BF70470860B5
:102A2000FFF7F2BF000000002DE9F04F82B00D6803
:102A3000002D00F0C78000F1264242F2004402F16E
:102A4000FF728305C5F602040A27A04243EA9222D8
:102A500008BF0927082A40F2040C38BF1746C5F6FC
:102A6000000C4FF0000E0097002700260AE000BF80
:102A700001360D6835FA06F207F102070EF1040E71
:102A800000F0A080012202FA06FB15EA0B08EFD045
:102A9000D1F804A003220AF0030502FA07F36C1E22
:102AA0006FEA0309012C0FD88368CC6803EA090395
:102AB000BC4023438360CAF30014436823EA0B033A
:102AC000B4402343436003E0032D01D1032520E0FC
:102AD000C3688C6803EA0903BC40022D43EA04037F
:102AE000C36016D16FF003020EF01C0502EA560314
:102AF0000F22034402FA05FBD3F820A00C692AEA4E
:102B00000B0AAC4044EA0A041C62D1F804A00AF0A3
:102B10000305036805FA07F403EA09031AF4403FC2
:102B200043EA04030360A3D044F2F44240F2084AAB
:102B3000C5F60202C5F6000A136843F002031360EB
:102B400013680F2203F00203019326F00303019C94
:102B50000EF00C0453F80A9002FA04F5009A29EAE0
:102B6000050502FA04F44FF0B0492C4343F80A403B
:102B7000D9F800304C6843EA0805E20258BF23EA5E
:102B80000805C9F80050A502DCF8002042EA080355
:102B900058BF22EA0803A503CCF80030DCF88020F7
:102BA00042EA080358BF22EA0803E403CCF8803065
:102BB000DCF87C2042EA080358BF22EA0803CCF87C
:102BC0007C3055E702B0BDE8F08F00000000000047
:102BD000002A08BF0904816170470000000000005E
:102BE0004AF67C50C2F200400068704700000000C6
:102BF00040F200004AF67C51C2F20040C2F20041AD
:102C000000780A6810440860704700000000000067
:102C100080B5032000F02CF902F066FC44F2184164
:102C200040F67413C5F60201C0F601030A68C2F348
:102C300003229A5C096801F00F0102F01F02595C3F
:102C4000D04040F20C02C2F2004201F01F0120FA13
:102C500001F1116040F20801C2F2004108600F204A
:102C600000F00AF800281CBF012080BD00F0A4F885
:102C7000002080BD000000000F2843D8B0B58AB006
:102C80000446192000222146002500F0C1F8192031
:102C900000F0AAF840F20400C2F20040046044F2DE
:102CA000F040C5F60200016841F0010101600068D2
:102CB00001A900F001000290029802A802F060FB56
:102CC00002F0E2FB4DF683614000C4F21B310022AA
:102CD000A0FB010146F24470C2F200404FF0FF3306
:102CE000C4F20102026003EB9141C0E9011540F218
:102CF000E731C0E9031503F05BFC28B101200AB0FD
:102D0000B0BD00BF0120704746F24470C2F20040DF
:102D100003F082FC0AB0B0BDB0B502784EF69C5C00
:102D2000CEF2000C43784CF8043CFAB14368CCF87E
:102D30000030037BC17A90F80AE0457B447A42EA8E
:102D40000372837B42EA0161C27B41EACE41007A91
:102D500041EA854141EA434141EA024141EA042115
:102D600041EA4000CCF80400B0BD00BF0020CCF820
:102D70000000CCF80400B0BD4EF62450CEF20000A6
:102D8000BFF35F8F016821F480310160002101678A
:102D900070470000000000004EF6245140F0010092
:102DA000CEF200010867086840F480300860BFF385
:102DB0004F8FBFF36F8F704781B044F2F440002211
:102DC000C5F60200016841F00201016000680F21B0
:102DD00000F0020000906FF00100009B01B000F0D5
:102DE00017B8000000000000002848BF704700F03E
:102DF0001F01012202FA01F14EF20012C0F34A1043
:102E0000CEF2000242F820107047000000000000DF
:102E100070B54EF60C5C4FF0FF36CEF2000C00F1B0
:102E2000604505F56445DCF80030C3F3022E8EF0F2
:102E30000703042B28BF0423BEF1030406FA03F39F
:102E400021EA030100F00F0338BF0024043B0028EF
:102E5000634406FA04F048BF03F10C05A14022EADE
:102E6000000008430001287070BD00000000000051
:102E70004EF60C514FF6FF03CEF200010A681A40DD
:102E800060F30A2242F0806040F0FD7008607047F5
:102E900001680122C0F80025002280F8F424886926
:102EA00040F000608861486D40F08052002042F0A0
:102EB00003024A65704700007047000000000000F0
:102EC00002680020516270472DE9F043D0F800807D
:102ED000D8F8243081B1D8F82870B1F1010E03EB95
:102EE000174355D05FFA8EF10EF0030C04290BD274
:102EF000002700212DE000BF002043EA0241C8F86E
:102F00002810BDE8F08300BF0EF0FC0908F1F405BD
:102F1000002108F5827600BF55F8107F41F00100CE
:102F2000C0B241F00304E4B203EB174341F00207DF
:102F300056F82000FFB2043103EB104056F827305A
:102F400056F82440CFB200EB13404F4500EB14433A
:102F5000E2D1BCF1000F1BD008EB8700BCF1010FE0
:102F6000D0F8040103EB104312D0481CBCF1020F4F
:102F7000C0B208EB8000D0F8040103EB104307D087
:102F8000881CC0B208EB8000D0F8040103EB1043AA
:102F900008EB8E0043EA0241C0F804110020BDE8AE
:102FA000F083000000000000D0F8080507F040BCE6
:102FB00001EBC10200EB8202D0F80805926C07F029
:102FC0009BBB00000000000001EBC10200EB82028D
:102FD000D0F80805D2F8882207F0EEBB0000000008
:102FE000D0F8080507F028BC10B54AB2044601F035
:102FF0000F00B2F1FF3F00EBC00104EB81020BDDDB
:1030000002F51F71002382F87D3294F8BC24087009
:10301000012A0BD1022010BD02F13C01012382F8EC
:103020003D3094F8BC240870012AF3D0012084F8C4
:10303000BC04206808F0E8F9002084F8BC0410BD46
:10304000B0B5044601F00F006268824202D201204E
:10305000B0BD00BF49B2B1F1FF3F09DD00EBC001D7
:10306000002304EB810202F51F7182F87D3208E033
:1030700000EBC001012304EB810202F13C0182F864
:103080003D3094F8BC2400258D70012A087001D1D0
:103090000220B0BD012084F8BC04206808F098FC30
:1030A000284684F8BC54B0BD01F00F0101EBC1010A
:1030B00000EB8100D0F89002704700000000000093
:1030C00070B54CB2064601F00F00B4F1FF3F00EBC3
:1030D000C00107DD06EB8104002504F51F7184F8AB
:1030E0007D5206E006EB810C01240CF13C018CF8CA
:1030F0003D404D7808708A60002D0B7118BF4883E1
:10310000022B01D10020487196F8BC04012801D19E
:10311000022070BD012086F8BC04306808F01CF85D
:10312000002086F8BC0470BD80B501F00F0E0EEBD8
:10313000CE0100EB810C0021CCE9A331C368CCF8AF
:1031400088228CF87D12012B8CF87CE20CF51F7123
:1031500008BFCCF89822DAB2006808F085FC00209D
:1031600080BD000000000000B0B5044601F00F056E
:103170004068854202D90120B0BD00BF48B2B0F11D
:10318000FF3F09DD01EBC100002204EB800000F5E8
:103190001F7180F87D2208E005EBC500012204EBD9
:1031A000800000F13C0180F83D2094F8BC2401200F
:1031B0008870012A0D7001D10220B0BD84F8BC04D2
:1031C000206808F031FC1DB1002084F8BC04B0BDBB
:1031D000217B206804F2C44208F0CAFB002084F876
:1031E000BC04B0BD0000000080B501F00F0E0EEB76
:1031F000CE0100EB810C614601F83CEF4FF0000E70
:10320000C1F814E04FF0010E81F801E0D0F80CE0B5
:10321000CA60BEF1010F0B6108BFCCF858205FFAFD
:103220008EF2006808F020FC002080BD0000000045
:103230002DE9F04F89B005688246284608F018FE4F
:1032400010B109B0BDE8F08FDAF8000008F040FED8
:103250000028F6D0D5F80808C0F30D20CAF8FC0401
:10326000DAF8000008F034FE8007DAF8000003D531
:10327000416901F00201416105F50061049108F026
:1032800027FEC006DAF8000007953BD5816921F0DA
:10329000100181612C6A04F00F05C4F34340062835
:1032A00018D0022827D147F6F07014EA000622D081
:1032B00005EBC50034090AEB800707982246D7F8CA
:1032C000881208F009FED7F8880200EB1610C7F83C
:1032D000880207E00AF2C4410822079808F0FCFDC2
:1032E000C4F30A1405EBC5000AEB8000D0F8901275
:1032F0002144C0F89012DAF80000816941F0100111
:103300008161079D08F0E4FD000340F10181DAF8D6
:10331000000008F0B9FD002800F0FA8006460AF522
:1033200027784FF430644FF0000B0AF2C440089045
:1033300009E000BF0BF1010B760804F1200408F14D
:10334000240800F0E580F007F4D05FFA8BF9DAF892
:103350000000494608F0B4FD0746C00771D028199F
:1033600001218160DAF8000004EB000C036CDCF84A
:103370000820DAF80C50012D28D115073AD495060B
:1033800058D412F0280F079D5BD143F20B01C4F60D
:1033900054718B4202D312F4004235D1D8F8002088
:1033A000DCF810106FF3DF41BBF1000FA2EB01015D
:1033B00048F80C1C19D1DAF88C22002A00F0A280FF
:1033C000DAF888020844CAF888020EE043F20B05D6
:1033D000C4F65475FF35AB421CD110042CD49006B2
:1033E000079D02D52020CCF8080050464946FFF73B
:1033F000EBFD26E043F20B00079DC4F654708342B8
:103400001FD312F400401CD04FF40040CCF8080049
:1034100017E000BFBBF1000F06D1DAF88C1219B922
:103420000021089A08F0A4FA50464946FFF7CCFD5F
:1034300006E000BF202001E04FF40040CCF8080077
:10344000079D38072CD528190821816043F20B010C
:10345000DAF80000C4F65471056C20448D4281688E
:103460000AD311F4004107D04FF400418160504667
:1034700000F0FAFC079D09E0504600F0F5FC43F22D
:103480000B00C4F654708542079D09D3DAF80C008E
:10349000012805D1DAF800000121089A08F068FA3D
:1034A000F80607D4B8070AD4B80620D4B8047FF5C4
:1034B00041AF22E0281910218160B807F4D568696E
:1034C000000604D50499486840F48060486018F804
:1034D0001D0C012806D1002008F81D0C5046494655
:1034E00000F092FB281902218160B806DED5281968
:1034F00020218160B8047FF51DAF28194FF40051D9
:10350000816017E70121089A08F032FA6DE700BFE1
:10351000DAF8000008F0DCFC4003DDF810B040F100
:10352000E180DAF8000008F0A7FC002800F0DA805B
:103530000646079800F5106700250AF2C44002907D
:10354000CDF814A0039704E0760805F1010500F01A
:10355000C980F007F8D0E9B2DAF80000089108F065
:103560009BFC0446C0070BD1200733D4E00637D4B8
:1035700060063BD4A0073FD42006E5D555E000BF48
:1035800005F00F00012307EB4512DBF8341003FAB6
:1035900000F021EA0000CBF834009360DAF80C0068
:1035A000012811D105EBC5000AEB8000D0E911120A
:1035B0001144816445B9DAF84C0028B9DAF8000002
:1035C0000121029A08F0D4F950460899FFF7F0FC5F
:1035D0002007CBD507EB451008218160E006C7D551
:1035E00007EB4510102181606006C3D507EB45103D
:1035F00040218160A007BFD50798294608F0CCFB81
:1036000005EBC5000AEB800010F83F1F012905D12A
:10361000002101705046089900F0F2FA07EB4510BE
:103620000221816020067FF58FAF05EBC5000AEB14
:103630008002914659F84C1FC84658F8040F814241
:10364000FFF482AF9346DAF800400B1A5BF8447F30
:10365000BB4238BF1F4604EB4513069407F1030C29
:10366000D3F81879BFB2B7EB9C0F29D303F5106AD2
:1036700002F14807D9F8001081421FD9081A0599AC
:10368000DBF80040A0420A7B38BF0446396800924C
:10369000A3B20698089A08F04BFD3868E11C204454
:1036A0003860D8F800002044C8F80000DAF8182084
:1036B00092B2B2EB910FDDD2D9F80010DDF814A070
:1036C000DDE9037B81423FF63FAF069A05F00F002C
:1036D000012101FA00F0D2F8341821EA0000C2F802
:1036E000340831E7DAF8000008F0F2FB00281DD4B6
:1036F000DAF80000079C08F0EBFB000536D4DAF896
:10370000000008F0E5FB000141D4DAF8000008F001
:10371000DFFBC0044DD4DAF8000008F0D9FB8004C8
:10372000DAF8000000F165817EE100BFDBF80400FB
:1037300020F00100CBF804009AF8F404012807D126
:1037400000208AF8F40400215046FFF7B5FB02E0A0
:10375000504600F06DFBDAF80000079C416901F06B
:103760000041416108F0B4FB0005C8D5DBF8080052
:10377000C00702D0504600F09FFBDAF80000416914
:1037800001F40061416108F0A3FB0001BDD5DAF846
:103790000000416901F0006141619AF8F414F9B147
:1037A000504600F089FBDAF8000008F091FBC004F5
:1037B000B1D5DBF80400102120F00100CBF80400A3
:1037C000DAF8000008F0E8FADAF80400002800F05F
:1037D000D780042800F0030C16D2002182E000BF3D
:1037E00001218AF8F414406DC0F38300CAF8F8048C
:1037F0005046FFF761FBDAF8000008F069FBC004EF
:103800007FF589AFD5E700BF20F0030E04F53663DE
:103810004FF6A0584FF6C0554FF6E0544FF60060F3
:1038200000214FF67F37CFF6FF78CFF6FF75CFF642
:10383000FF74CFF6FF7000BFA3F51872A3F51076E2
:10384000043197608E4553F8082022F4001243F8A3
:10385000082043F8587C53F8602C22F4001243F8F7
:10386000602C53F8602C42F0006243F8602CB76083
:10387000A3F508765A5922F400125A5143F8387CBD
:1038800053F8402C22F4001243F8402C53F8402CFB
:1038900042F0006243F8402CB760A3F500761A5955
:1038A00022F400121A5143F8187C53F8202C22F409
:1038B000001243F8202C53F8202C42F0006243F809
:1038C000202CB7601A5822F400121A509F601A6810
:1038D00022F400121A601A6842F000621A6003F1C2
:1038E0008003A9D1BCF1000F079849D000F5106200
:1038F00000F5306002EB41174FF67F334E01BCF10B
:10390000010FBB6000EB4115975927F40017975141
:10391000AB60875927F400178751875947F0006734
:1039200087512DD04F1CBCF1020F4FEA471502EB17
:10393000471600EB4717B360565926F40016565148
:10394000BB60435923F400134351435943F00063D0
:10395000435115D002314FF67F364F0102EB411330
:1039600000EB41119E60D35923F40013D3518E60B4
:10397000C15921F40011C151C15941F00061C15137
:10398000DBF81C0040F00110CBF81C00DAF8300026
:1039900040B1DBF8840040F00B00CBF884000BF161
:1039A000440008E0DBF8140042F22B010843CBF896
:1039B00014000BF1100001680AF2C44241F00B013F
:1039C0000160DBF8000020F4FE60CBF800009AF8FC
:1039D0000C10DAF8000007F0CBFFDAF800004169BC
:1039E00001F48051416108F073FA8004DAF80000B4
:1039F0001AD507F0F9FBDAF8000008F029FACAF83E
:103A00001000DAF8004001F0E7FC9AF810200146B7
:103A1000204608F001FB504600F0F2F9DAF8000009
:103A2000416901F40051416108F052FA000707D4DE
:103A3000DAF8000008F04CFA00060ED436E000BFB9
:103A4000504600F0F9F9DAF80000416901F0080188
:103A5000416108F03DFA000628D50799886920F0F1
:103A600080008861DAF8040002281FD3012440F2A4
:103A7000A32503E001342435844217D21AF8051037
:103A80000129F7D104F00F00220600EBC0000AEB79
:103A9000800000F13C0158BF00F51F71DAF800000A
:103AA00008F0EAF8DAF80400E4E700BFDAF800000A
:103AB00008F00EFAC00251D4DAF8000008F008FA53
:103AC000800240F18080DAF8041002292DD3079893
:103AD000013900F532600AF52972012304E000BFC4
:103AE000013900F1200020D01746066812F8245B47
:103AF000012DF5D1B6F1FF3FF2DCDAF8FC5406F403
:103B0000803605F00105AE42EAD1079E07F8013C78
:103B1000B76947F08007B76177693F06E0D4DBF803
:103B2000040040F40070CBF80400DAF800004169AA
:103B300001F40011416108F0CBF9400049D550462D
:103B4000FFF732FADAF80000416901F08041416183
:103B500008F0BEF9400743D4FFF773BBDAF804005E
:103B6000022825D307990AF1640501F5126401269C
:103B7000012703E001372034874219D22946226801
:103B800015F8243B012BF5D1B2F1FF3FF2DC07F031
:103B90000F0001F8016C00EBC0000AEB800000F19F
:103BA0003C01DAF8000008F067F8DAF80400E1E711
:103BB000DAF80000416901F48011416108F088F9E8
:103BC00080023FF580AFDAF8000008F081F940008C
:103BD000B5D4DAF8000008F07BF940077FF531AB87
:103BE000DAF800004468610704D55046FFF7F8F999
:103BF000DAF8000041682143416009B0BDE8F08F68
:103C0000D0F8080506F07CBED0F8080506F090BE96
:103C1000002800F0A1802DE9F04F8BB00446056824
:103C200090F8BD0428B9002084F8BC04204600F0B8
:103C3000ABF8032084F8BD04E86BC00501D4002074
:103C4000E060206807F08CFE20680A9004F1040E02
:103C500004F11C0AD4E90C509EE80E589AE8C007FB
:103C6000CDE9085003A88DE8005880E8C0070A98FD
:103C700007F0CAFA002867D120680021002508F063
:103C800083F96168002941D001200023002200BF90
:103C900003EBC30304EB8307D3B287F83C20013264
:103CA000A7F85630D3B287F83D00994287F84050C4
:103CB0007D64BD64FD64EBD80020431CDDB200EBE5
:103CC000C002A94204EB820282F87C02C2F8880298
:103CD000C2F88C0214D900BF05EBC507C2F88402F4
:103CE00082F8800282F87D0204EB870282F87C323F
:103CF0000133DDB2C2F88802A942C2F88C02EBD8C7
:103D000082F87D0282F88002C2F8840204F1140E67
:103D100004F1240A2268A0680A90D4E903379EE8D7
:103D200040589AE80007D4E90C50CDE9085002A8A1
:103D3000CDE9007680E8005805A880E80007104625
:103D40000A9A07F0C5FB48B1022084F8BD0401209F
:103D50000BB0BDE8F08F00BF01207047002084F851
:103D60003800012084F8BD04606A012802D1204691
:103D7000FFF78EF8206807F09BFB00200BB0BDE832
:103D8000F08F00000000000010B5B0B002A904469A
:103D900001F10800B021FCF7E0FB00212068C4F22B
:103DA0000401884202D030B010BD00BF0020039053
:103DB0004FF4802002904FF44010239002A800F0AE
:103DC00057FC08B1FDF704F800F0BAF844F2D84007
:103DD0000022C5F60200016841F000710160006830
:103DE000052100F00070019001984D20FFF710F8B8
:103DF0004D20FEF7F9FF30B010BD000000000000BC
:103E000010B50446006928B1022801D0FCF7E0FF94
:103E1000012100E00021D4F8080506F015FED4F8D1
:103E20000805BDE8104006F0C3BD0000000000001A
:103E3000D0F8080506F0ECBDD0F8080506F0F4BD92
:103E400010B5044690F8BC04012801D1022010BD31
:103E5000012084F8BC0484F83810206808F0C8F801
:103E6000002084F8BC0410BDD0F8082500F2C4413D
:103E7000104606F001BE000010B5044690F8BC04E0
:103E8000012801D1022010BD2068012184F8BC1452
:103E9000C16BC90506D4A16A012903D1816B41F424
:103EA0008031816307F070FF206807F0F1FA00208D
:103EB00084F8BC0410BD000010B50446D0F8080515
:103EC00006F036FE2068D0F8001E41F00101C0F86F
:103ED000001E206A002808BF10BD4EF61050CEF21A
:103EE0000000016841F00601016010BD0000000003
:103EF000B0B544F60C05C5F60205296849072968DE
:103F000006D401F00701081A18BF0120B0BD00BF98
:103F100021F0070108432860FEF762FE044600BF57
:103F200055F8080C800407D4FEF75AFE001BB0F5C4
:103F30007A7FF5D90120B0BD0020B0BD000000009F
:103F400044F60C00C5F60200016841F08071016082
:103F5000704700000000000080B544F2304EC5F606
:103F6000020E5EF8083C5EF8081CC1F3051C5EF802
:103F7000041CBCF1000FDEF8042019D001F001018F
:103F800003F003034942022B01EAD2016FF35F31D0
:103F900000EE101AB8EE400A10D0012B12D01BB957
:103FA0005EF8301C890611D49FED361A1CE000BF64
:103FB00000218160C0E9001180BD00BF9FED301A73
:103FC00012E000BF9FED2D1A0EE000BF5EF8301C1E
:103FD00049F20002C0F2D032C1F3C10122FA01F16C
:103FE00001EE101AB8EE411ADEF800109FED263AE5
:103FF0006FF35F2102EE101ADEF80010C1F34621C4
:10400000B8EE422A00EE032A00EE10CAB7EE003ADC
:10401000B8EE400A81EE000A32EE031A02EE101AE0
:10402000B8EE422A20EE010A32EE031A80EE011A9F
:10403000BCEEC11A80ED001ADEF80010C1F3064193
:1040400001EE101AB8EE411A31EE031A80EE011A91
:10405000BCEEC11A80ED011ADEF80010C1F3066152
:1040600001EE101AB8EE411A31EE031A80EE010A81
:10407000BCEEC00A10EE101A816080BD0024744AA4
:10408000001BB74B0024744C0000003900000000F6
:1040900080B544F2384EC5F6020E5EF8103C5EF86C
:1040A000101C5EF80C2CC1F3053CDEF80410BCF1CA
:1040B000000F15D0C908D20601EAE2716FF35F3133
:1040C00000EE101A03F003010229B8EE400A0DD0E9
:1040D00081B95EF8381C890610D49FED361A1BE0B2
:1040E00000218160C0E9001180BD00BF9FED301A42
:1040F00012E000BF9FED2D1A0EE000BF5EF8381CE5
:1041000049F20002C0F2D032C1F3C10122FA01F13A
:1041100001EE101AB8EE411ADEF800109FED263AB3
:104120006FF35F2102EE101ADEF80010C1F3462192
:10413000B8EE422A00EE032A00EE10CAB7EE003AAB
:10414000B8EE400A81EE000A32EE031A02EE101AAF
:10415000B8EE422A20EE010A32EE031A80EE011A6E
:10416000BCEEC11A80ED001ADEF80010C1F3064162
:1041700001EE101AB8EE411A31EE031A80EE011A60
:10418000BCEEC11A80ED011ADEF80010C1F3066121
:1041900001EE101AB8EE411A31EE031A80EE010A50
:1041A000BCEEC00A10EE101A816080BD0024744A73
:1041B000001BB74B0024744C0000003900000000C5
:1041C00080B544F2404EC5F6020E5EF8183C5EF82B
:1041D000181C5EF8142CC1F3055CDEF80410BCF169
:1041E000000F15D0C908D20501EAE2716FF35F3103
:1041F00000EE101A03F003010229B8EE400A0DD0B8
:1042000081B95EF8401C890610D49FED361A1BE078
:1042100000218160C0E9001180BD00BF9FED301A10
:1042200012E000BF9FED2D1A0EE000BF5EF8401CAB
:1042300049F20002C0F2D032C1F3C10122FA01F109
:1042400001EE101AB8EE411ADEF800109FED263A82
:104250006FF35F2102EE101ADEF80010C1F3462161
:10426000B8EE422A00EE032A00EE10CAB7EE003A7A
:10427000B8EE400A81EE000A32EE031A02EE101A7E
:10428000B8EE422A20EE010A32EE031A80EE011A3D
:10429000BCEEC11A80ED001ADEF80010C1F3064131
:1042A00001EE101AB8EE411A31EE031A80EE011A2F
:1042B000BCEEC11A80ED011ADEF80010C1F30661F0
:1042C00001EE101AB8EE411A31EE031A80EE010A1F
:1042D000BCEEC00A10EE101A816080BD0024744A42
:1042E000001BB74B0024744C000000390000000094
:1042F00010B584B0024641F6FF7300209B1A70EBA4
:1043000001032BDA47F6FF739B1A70EB01036BDA9C
:1043100082F400430B4300F0938082F480330B431C
:1043200000F0CC8082F40022114340F0708144F20E
:104330000040C5F60200816D01F44031B1F5003F47
:1043400000F03681B1F5803F00F01E81002940F079
:1043500028810068000100F1D88022E140F2FF735B
:104360009B1A70EB01031FDB82F480730B4300F098
:104370007B8082F48062114340F0498144F2004125
:10438000C5F60201886DC0F34252042A00F2098189
:1043900048F20000C0F2BB00DFE812F08E00B4006B
:1043A000BE003901C80000BF82F400630B4300F077
:1043B0006F8082F48052114340F0298144F2004121
:1043C000C5F60201086DC0F30232042A00F2E9804A
:1043D00048F20000C0F2BB00DFE812F06E0094006B
:1043E0009E001901A80000BF82F400530B4300F0A7
:1043F000758082F48042114340F0098144F2004408
:10440000C5F60204A06DC0F30270052800F2C98051
:10441000DFE810F00600DA00E200E400EA00EC0059
:1044200000F0DAFF216A40F67412C0F60102C1F30F
:104430000211515C01F01F01C84004B010BD00BF63
:1044400044F20040C5F60200016D01F04051B1F1A7
:10445000005F00F07D80B1F1805F00F09F80002957
:1044600000F07A809DE000BF44F20041C5F60201F1
:10447000086D00F00702042A00F2938048F2000061
:10448000C0F2BB00DFE802F0183E48C3520000BF94
:1044900044F20041C5F60201886DC0F30262042AAD
:1044A00000F27F8048F20000C0F2BB00DFE802F0BB
:1044B000042A34AF3E0000BF086870E044F20040B8
:1044C000C5F60200C16C0068C90368D5000168D553
:1044D00001A8FFF7DDFD039804B010BD44F20040D1
:1044E000C5F60200016DC1F30241052959D8DFE884
:1044F00001F0032F8791973304B0BDE8104000F01E
:1045000093BF00BF086800014BD501A8FFF7C0FDAD
:10451000019804B010BD00BF0868800041D501A813
:10452000FFF74EFE019804B010BD00BFC86C0A68CA
:10453000520700F04052086810D57AB9C0F3C100A4
:1045400049F20001C0F2D03121FA00F004B010BDF0
:104550000068000125D53AE0006848E0C00502D5B2
:10456000B2F1805F6BD00868B2F1005F00F40031F7
:104570004FF0000004BF43F20060C0F26E1000294B
:1045800008BF084604B010BD0068800009D501A826
:10459000FFF716FE039804B010BD00BF006880014D
:1045A00002D4002004B010BD01A8FFF7D5FC2DE017
:1045B000C16C0268520701F0405102683AD5C9BB8C
:1045C000C2F3C100BCE700BF20680001E9D501A823
:1045D000FFF75EFD1AE000BF206812E02068400788
:1045E000DFD52068AAE700BF20681AE0206843F200
:1045F00000618003C0F26E1101EAE07004B010BDEA
:1046000000688000CDD501A8FFF7DAFD029804B05C
:1046100010BD00BF01684907C3D500688EE700BF21
:10462000006840F60011C005C0F23D0101EAE070EB
:1046300004B010BDD20509D5B1F1805F06D140F6B6
:104640000010C0F23D0004B010BD00BF0068B1F121
:10465000005F00F400324FF0000004BF43F200603E
:10466000C0F26E10002A08BF104604B010BD000052
:104670002DE9F0470446C07844F22C480007C5F6FF
:10468000020833D5606E4FEA305103290CD8DFE8B9
:1046900001F003111D2600BFD8F8001041F40031CD
:1046A000C8F800101BE000BF01266078C0070BD0DF
:1046B00020E000BF04F10800022104F0D5FF064607
:1046C00060B16078C00715D1354646E004F1280096
:1046D000022105F05DF806460028F2D1606ED8F898
:1046E000241021F440110843C8F824000026607803
:1046F000C007E9D0A06D04280ED83546DFE800F0E9
:104700000412181E1E0000BFD8F80000354640F401
:104710000030C8F8000011E001250127607840074B
:104720001FD453E004F10800002104F09DFF04E0D1
:1047300004F12800002105F02BF805462F461DB195
:10474000607840070DD441E0D8F82400A16D20F036
:10475000070000250843C8F8240037466078400762
:1047600034D5D4F8A4004FEA705005280CD8DFE8FF
:1047700000F00311171D1D1DD8F8000040F4003093
:10478000C8F8000012E000BF01250126607800078C
:1047900020D455E004F10800002104F065FF04E096
:1047A00004F12800002104F0F3FF05462E461DB158
:1047B000607800070ED443E0D8F82C00D4F8A41099
:1047C00020F4600000250843C8F82C003E466078BD
:1047D000000735D5D4F8A8004FEA306005280DD879
:1047E000DFE800F00412181E1E1E00BFD8F80000FB
:1047F00040F40030C8F8000012E000BF0125012796
:10480000E078800720D44EE004F10800002104F095
:104810002BFF04E004F12800002104F0B9FF054655
:104820002F461DB1E07880070ED43CE0D8F82C006C
:10483000D4F8A81020F0E06000250843C8F82C0048
:104840003746E07880072ED5E06C4FEA3010032819
:104850000ED8DFE800F00903130900BFD8F8000004
:1048600040F40030C8F800002E467DB912E000BFC9
:10487000012501266078C00619D44CE004F1080037
:10488000022104F0F1FE05462E461DB16078C006F7
:104890000DD440E0D8F82000E16C20F03000002575
:1048A0000843C8F820003E466078C00633D5E06D66
:1048B0004FEA303004280DD8DFE800F00412181E4B
:1048C0001E0000BFD8F8000040F40030C8F8000017
:1048D00012E000BF01250127607880061FD44EE05A
:1048E00004F10800002104F0BFFE04E004F12800F8
:1048F000002104F04DFF05462F461DB1607880066B
:104900000DD43CE0D8F82400E16D20F4E04000250F
:104910000843C8F824003746607880062FD5206EFB
:104920004FEA3040052809D8DFE800F0040E1404EF
:10493000040400BF2E46ADB918E000BF01250126D2
:10494000607840061FD44FE004F10800012104F014
:104950008BFE04E004F12800012104F019FF054654
:104960002E461DB1607840060DD43DE0D8F82400F5
:10497000216E20F4E02000250843C8F824003E46BC
:104980006078400630D5D4F8AC004FEA3070052886
:1049900008D8DFE800F0030D130303032F46ADB979
:1049A00018E000BF012501276078000620D442E00E
:1049B00004F10800012104F057FE04E004F128008E
:1049C000012104F0E5FE05462F461DB16078000682
:1049D0000ED430E0D8F82C00D4F8AC1020F0E04031
:1049E00000250843C8F82C0037466078000622D519
:1049F000E06E58B1B0F1005F0CD0B0F1805F2FD104
:104A0000D8F8000040F40030C8F800002E469DB9E8
:104A100008E000BF04F10800012104F025FE05466E
:104A20002E464DB9D8F82400E16E20F04050002504
:104A30000843C8F824003E46E078C00733D0A06C95
:104A4000032813D8DFE800F008021A08D8F800009D
:104A500040F40030C8F80000A946BDB91AE000BF14
:104A600001250126E078C007E9D11CE001254FF0BF
:104A70000109A07840061AD51CE000BF04F1080027
:104A8000022104F0F1FD0546A9461DB1A0784006BB
:104A90000DD50FE0D8F82000A16C20F00300002510
:104AA0000843C8F82000B146A078400602D44F461B
:104AB00018E000BFD8F8D40340F48070C8F8D403DD
:104AC000FEF78EF8064600BFD8F8D403C00507D419
:104AD000FEF786F8801B6428F6D90325032701E03A
:104AE0002F468DB12078C00761D0A06F4FEAF0004B
:104AF00005283BD8DFE800F004404604040400BF6A
:104B0000002D2E4646D149E0D8F84410D4F8B00024
:104B1000414011F4407F11D0D8F84410D8F8442017
:104B200042F48032C8F84420D8F8442021F440717F
:104B300022F48032C8F84420C8F84410B0F5807FD1
:104B400040F0CE82FEF74CF8064641F2883A032543
:104B5000032700BFD8F84400800700F1BF82FEF7AA
:104B60003FF8801B5045F5D9BCE700BF0125012661
:104B7000207880071FD44CE004F10800012104F0E4
:104B800073FD04E004F12800012104F001FE054654
:104B90002E461DB1207880070DD43AE0D8F82800C1
:104BA000A16F20F0380000250843C8F828003E46D1
:104BB000207880072DD5606F052809D8DFE800F040
:104BC000040E1404040400BF2F46ADB918E000BF62
:104BD00001250127207840071FD44DE004F108008B
:104BE000012104F041FD04E004F12800012104F05A
:104BF000CFFD05462F461DB1207840070DD43BE080
:104C0000D8F82800616F20F0070000250843C8F895
:104C100028003746207840072ED5D4F89000052884
:104C200008D8DFE800F0030D130303032E46ADB9E7
:104C300018E000BF012501262078800620D451E02D
:104C400004F10800012104F00FFD04E004F1280044
:104C5000012104F09DFD05462E461DB120788006F9
:104C60000ED43FE0D8F82C00D4F8901020F00700C4
:104C700000250843C8F82C003E462078800631D530
:104C8000D4F88C004FEA3070052809D8DFE800F02E
:104C9000040E1404040400BF2F46ADB918E000BF91
:104CA000012501272078400620D451E004F10800B6
:104CB000002104F0D9FC04E004F12800022104F0F2
:104CC00067FD05462F461DB1207840060ED43FE013
:104CD000D8F82800D4F88C1020F0E04000250843D4
:104CE000C8F8280037462078400631D5D4F8980017
:104CF0004FEAB020052809D8DFE800F0040E1404BC
:104D0000040400BF2E46ADB918E000BF01250126FE
:104D10002078000620D454E004F10800002104F0BB
:104D2000A3FC04E004F12800022104F031FD054653
:104D30002E461DB1207800060ED442E0D8F82C0093
:104D4000D4F8981020F4E05000250843C8F82C004F
:104D50003E462078000634D5D4F89C004FEA7030E7
:104D600005280FD8DFE800F004141A04040400BF7B
:104D70002F46E5B12068010727D4C1063ED40003C1
:104D800055D475E00125012720680107F5D51CE001
:104D900004F10800002104F067FC04E004F128009D
:104DA000022104F0F5FC0546002D2F46E2D1D8F88B
:104DB0002C00D4F89C1020F4604000250843C8F86B
:104DC0002C00374620680107D7D5D4F88000B0F50D
:104DD000805F09D104F12800022104F0D9FC0028E9
:104DE00018BF0127D4F88000D8F8281021F44051CA
:104DF0000843C8F828002068C106C0D5D4F894003C
:104E0000B0F5807F09D104F12800022104F0C0FC34
:104E1000002818BF0127D4F89400D8F82C1021F4EA
:104E200040710843C8F82C002068000320D5D4F84E
:104E3000A000B0F5003F0FD0B0F5803F06D078BBA2
:104E400004F10800002104F00FFC04E004F1280044
:104E5000022104F09DFC05462E4655B9D8F82C00D9
:104E6000D4F8A01020F4403000250843C8F82C00E6
:104E70003E46A07840072BD5D4F88400B0F5401FFB
:104E80000BD0B0F5001F11D0B0F5801F2AD1D8F893
:104E9000000040F40030C8F800002F46CDB90DE006
:104EA00001250126A0784007E6D411E004F128008E
:104EB000012104F06DFC05462F4655B9D8F82800AD
:104EC000D4F8841020F4401000250843C8F82800C6
:104ED0003746A078C0070AD13E462168880016D51B
:104EE00033E000BF01250127A078C007F4D0206D72
:104EF000B0F5803F10D018BBD8F8000040F4003067
:104F0000C8F800002E4685B1216888001DD460686D
:104F10008A0326D465E000BF04F10800022104F0F2
:104F2000A3FB0546002D2E46EED1D8F82000216DBA
:104F300020F4803000250843C8F82000CCE700BFEB
:104F40000125012621688800E1D504F1280002210D
:104F500004F01EFC002818BF0126D4E900108A03C3
:104F60003FD5E26F6FF0010303EB3223022B0BD32B
:104F70004FEA322343B1012B40F0AA80D8F8003029
:104F800043F40033C8F8003025B3CA022CD48A0297
:104F900034D44A003CD4CA0F49D1090251D4C107C4
:104FA0005AD1810763D441076CD4010776D4C10676
:104FB00000F18080800607D504F12800022104F06A
:104FC000E7FB002818BF0125002D18BF0125284642
:104FD000BDE8F087D8F8283023F440731A43C8F8A6
:104FE00028203546CA02D2D5D8F82420236F22F0D3
:104FF00000421A43C8F824208A02CAD5D8F82420CF
:10500000A36E22F080721A43C8F824204A00C2D549
:1050100058F81C2C22F4004248F81C2CD4F8B42078
:1050200058F81C3C1A4348F81C2CCA0FB5D0D8F8C5
:105030002020636D22F040521A43C8F82020090254
:10504000ADD5D8F82810D4F8882021F440011143B8
:10505000C8F82810C107A4D004F10800002104F00A
:1050600003FB002818BF0546606881079BD504F143
:105070000800012104F0F8FA002818BF054660680E
:10508000410792D504F10800022104F0EDFA00284E
:1050900018BF0546606801077FF589AF04F1280055
:1050A000002104F075FB002818BF05466068C106A2
:1050B0007FF580AF04F12800012104F069FB00288E
:1050C00018BF0546606880063FF576AF7CE700BFF5
:1050D0000125CA027FF55BAF86E700BFD4F8B000B8
:1050E0004FF6CF7358F81C2CC0F2FF0300F4407148
:1050F00022F47C5203EA10136FF31F30B1F5407FA6
:1051000008BF1A43002548F81C2CD8F8441008435F
:10511000C8F84400FFF7CBBC2DE9F04381B000286C
:1051200000F02A8142F200080446C5F200288946B0
:10513000D8F8000000F00F0088420ED2D8F8000026
:1051400020F00F0040EA0900C8F80000D8F800007D
:1051500000F00F00484540F00F81206844F21847E6
:105160004107C5F602070AD521693A6802F07002C4
:10517000914204D93A6822F0700211433960010764
:105180000AD561697A6802F07002914204D97A689E
:1051900022F0700211437960C1060AD5A1697A68CC
:1051A00002F4E062914204D97A6822F4E062114389
:1051B000796081060AD5E169BA6802F0700291420D
:1051C00004D9BA6822F070021143B96010F00201EC
:1051D0000AD0E2683B6803F00F039A4204D93B68A7
:1051E00023F00F031A433A60C20746D03968D4E966
:1051F000010221F47061012841EA0201396009D0FD
:1052000003280DD0022811D157F8181C890312D495
:10521000B2E000BF57F8181CC9050CD4ACE000BFC1
:1052200057F8181C890106D4A6E000BF57F8181CCF
:10523000490740F1A18057F8081C21F007010843F5
:1052400047F8080CFDF7CCFC064641F2883500BF54
:1052500057F8080C616800F03800B0EBC10F09D0B6
:10526000FDF7BEFC801BA842F2D9032001B0BDE8C7
:10527000F08300BF206800F0020151B1E1683A6894
:1052800002F00F02914204D23A6822F00F02114359
:105290003960D8F8001001F00F0149450DD9D8F850
:1052A000001021F00F0141EA0901C8F80010D8F8F8
:1052B000001001F00F0149455ED141070AD521696F
:1052C0003A6802F07002914204D23A6822F0700209
:1052D0001143396001070AD561697A6802F07002EA
:1052E000914204D27A6822F0700211437960C106BB
:1052F0000AD5A1697A6802F4E062914204D27A6820
:1053000022F4E0621143796080060AD5E069B96849
:1053100001F07001884204D2B96821F0700108439D
:10532000B86000F0E1F8396840F67412C0F6010286
:10533000C1F30321515C3B6803F00F0301F01F012F
:10534000D25C20FA01F102F01F0040F20C02C2F21E
:10535000004221FA00F0106040F2040040F208021E
:10536000C2F20040C2F200420068116001B0BDE824
:10537000F043FDF781BC00BF012001B0BDE8F08320
:105380003F22026044F21842C5F6020252F8083C7D
:1053900003F007034360136803F4706383601368CA
:1053A00003F00F03C360136803F0700303615368D5
:1053B00003F070034361536803F4E0638361926810
:1053C00002F07002C26142F20000C5F200200068E3
:1053D00000F00F000860704780B500F085F844F2D7
:1053E000184140F67413C5F60201C0F601030A68BD
:1053F000C2F303229A5C096801F00F0102F01F0258
:10540000595C20FA02F201F01F0040F20C01C2F2D6
:10541000004122FA00F0086040F20801C2F20041A7
:105420000A6080BD0000000080B500F05DF844F225
:10543000184C40F67413C5F6020CC0F60103DCF8F4
:105440000020C2F303229A5CDCF8001001F00F0187
:1054500002F01F02595CD04040F20C02C2F200423E
:1054600001F01F0120FA01F1116040F20802C2F2BE
:1054700000421060DCF80400C0F30210185C00F079
:105480001F0021FA00F080BD80B500F02DF844F235
:10549000184C40F67413C5F6020CC0F60103DCF894
:1054A0000020C2F303229A5CDCF8001001F00F0127
:1054B00002F01F02595CD04040F20C02C2F20042DE
:1054C00001F01F0120FA01F1116040F20802C2F25E
:1054D00000421060DCF80400C0F30220185C00F009
:1054E0001F0021FA00F080BD44F20041C5F6020120
:1054F0000869C0F3C200032810D002282ED098BB40
:105500000868800649F20000C0F2D03058BF7047EA
:105510000968C1F3C101C840704700BF8A6A886A40
:10552000C0F3051CC86ABCF1000F4B6B22D000F021
:10553000010002F003024042022A00EAD3006FF3A6
:105540005F3000EE100AB8EE400A15D0C2B9086804
:10555000800619D49FED281A23E000BF43F20060B3
:10556000C0F26E10704700BF40F60010C0F23D0060
:10557000704700BF002070479FED1E1A11E000BF6A
:105580009FED1B1A0DE000BF086849F20002C0F24F
:10559000D032C0F3C10022FA00F001EE100AB8EEDA
:1055A000411A086B9FED153A6FF35F2002EE100A67
:1055B000086BC0F34620B8EE422A013000EE032A01
:1055C00000EE10CAB7EE003AB8EE400A81EE000ACB
:1055D00032EE031A20EE010A01EE100AB8EE411A6B
:1055E00080EE010ABCEEC00A10EE100A704700BF40
:1055F0000024744A001BB74B0024744C000000398F
:1056000070B3F0B581B00446007844F20046C0079C
:10561000C5F6020626D1207880076ED5306910F0D5
:105620003801B06A46D0182908BF5FEA807041D0BF
:10563000E0683168002800F0318121F01901084349
:105640003060FDF7CDFA0546306840074ED4FDF7CF
:10565000C7FA401B0228F7D9032001B0F0BD00BFF4
:1056600001207047306900F03801B06A102905D078
:1056700018290BD100F00300022807D130688003FD
:10568000C9D560680028C6D1AEE000BF60680028B8
:1056900000F03A81B0F5A02F00F04E81B0F5803FC8
:1056A00000F04E81306820F480303060306820F4A3
:1056B000802048E130684007E06802D5002800F00B
:1056C0009380316821F0190108433060FDF788FAB2
:1056D000054600BF3068400708D4FDF781FA401B3B
:1056E00002284FF00300F5D901B0F0BD70682169C0
:1056F00020F0FE4040EA016070602078C0061AD5B4
:10570000306900F03801B06A082907D0182940F044
:10571000858000F00300012840F080803068C005DB
:1057200002D5E06980285FD1F068216A20F07C50C2
:1057300040EA0160F060207800073FD420788006BE
:1057400056D42078400700F18180656A9DB33069A6
:1057500000F03800182840F01981012DB16A306B33
:1057600042D001F00302A36A9A423DD1C1F3051170
:10577000E26A914238D10146226B6FF35F21013A10
:10578000914231D1C0F34622616B01398A422BD15B
:10579000C0F30642A16B01398A4225D1C0F30660ED
:1057A000E16B013988421FD1706BA16CC0F3CC0052
:1057B000814240F0A181002001B0F0BD6069002865
:1057C000706F59D040F001007067FDF709FA054687
:1057D000706F8007B2D4FDF703FA401B0228F7D997
:1057E000032001B0F0BD00BF012001B0F0BD00BF3B
:1057F000A0690028306875D040F480503060FDF713
:10580000EFF90546306880049BD4FDF7E9F9401BA9
:105810000228F7D9032001B0F0BD00BFE0690028DD
:10582000306800F0A18040F080003060FDF7D8F9CA
:10583000054600BF3068C0053FF576AFFDF7D0F9EB
:10584000401B02284FF00300F4D94DE7D6F80004BE
:1058500040F48070C6F80004FDF7C2F9054600BFA9
:10586000D6F80004C0052BD4FDF7BAF9401B642814
:10587000F6D9032001B0F0BD20F001007067FDF7FC
:10588000AFF90546706F80077FF558AFFDF7A8F9AF
:10589000401B02284FF00300F4D925E721F0010056
:1058A0003060FDF79DF90546306840077FF525AF6C
:1058B000FDF796F9401B02284FF00300F4D913E7D7
:1058C000A068002800F08480052800F09B80012853
:1058D00000F09C80306F20F001003067306F20F0C6
:1058E000040096E020F480503060FDF779F9054619
:1058F000306880047FF525AFFDF772F9401B022860
:105900004FF00300F4D9EFE6306820F480303060C7
:10591000306820F480203060FDF762F9054600BF52
:10592000306880037FF577AEFDF75AF9401B642895
:105930004FF00300F4D9D7E6306840F4802030609F
:10594000306840F480303060FDF74AF9054600BF0A
:10595000306880033FF55FAEFDF742F9401B6428D5
:10596000F6D9032001B0F0BD20F080003060FDF7D3
:1059700037F905463068C0057FF5DDAEFDF730F933
:10598000401B02284FF00300F4D9ADE6306820F048
:1059900080703060FDF724F9022D05460CD100BF60
:1059A0003068800148D5FDF71BF9401B02284FF0F5
:1059B0000300F5D998E600BF306880017FF5FBAEA3
:1059C000FDF70EF9401B02284FF00300F4D98BE6D7
:1059D000306F20F001003067306F20F00400306736
:1059E000FDF7FEF8054641F28837306F80077FF5F6
:1059F000ACAEFDF7F5F8401BB8424FF00300F4D908
:105A000072E600BF306F40F004003067306F40F046
:105A100001003067FDF7E4F8054641F2883700BF22
:105A2000306F80073FF591AEFDF7DAF8401BB842C2
:105A30004FF00300F4D957E604F12807B06A40F2AA
:105A4000F33188438ECF0843591E40EA02104FF4C9
:105A50007E426FF35F21B06202EB47204FF4FE02FB
:105A600080B2E36B0844A16B02EB01414FF0FE42B0
:105A700001F4FE0102EB0362084402F0FE41084417
:105A80003063F06A4FF6F87120F00100F062706B3D
:105A9000A26C884340EAC2007063F06A216C20F077
:105AA0000C000843F062F06A616C20F002000843C9
:105AB000F062F06A40F48030F062F06A40F4003046
:105AC000F062F06A40F48020F062F06A40F0010079
:105AD000F062306840F080703060FDF781F8044675
